:04000000D0EF14F039
:1000080000C017F001C016F002C015F0F2A02BD105
:1000180081CF23F0016A81BA012A01503518D8B47A
:1000280021D181BA03D081A803D0BED081A8BCD089
:100038002C50000AFF0ED8A4000E016E2950000AA9
:10004800FF0ED8A4000E006E005001162A50000AB8
:10005800FF0ED8A4000E006E005001162F50000AA3
:10006800FF0ED8A4000E006E005001163050000A92
:10007800FF0ED8A4000E006E005001162D50000A85
:10008800FF0ED8A4000E006E005001162E50000A74
:10009800FF0ED8A4000E006E005001162850000A6A
:1000A800FF0ED8A4000E006E015000160CE0800E62
:1000B8003B18006E800E005C02E1C80E3A5C02E25A
:1000C8003A4A3B2A70D02C50010A0BE1800E3B18AB
:1000D800006E800E005C02E10A0E3A5C02E23A4AC7
:1000E8003B2A2950010A0BE1800E3B18006E800E56
:1000F800005C02E1140E3A5C02E23A4A3B2A2A50BA
:10010800010A0BE1800E3B18006E800E005C02E1D4
:10011800140E3A5C02E23A4A3B2A2F50010A0BE1DC
:10012800800E3B18006E800E005C02E1140E3A5CF3
:1001380002E23A4A3B2A3050010A0BE1800E3B1892
:10014800006E800E005C02E1140E3A5C02E23A4A4C
:100158003B2A2D50010A0BE1800E3B18006E800EE1
:10016800005C02E1640E3A5C02E23A4A3B2A2E50F5
:10017800010A0BE1800E3B18006E800E005C02E164
:10018800640E3A5C02E23A4A3B2A2850010A0BE123
:10019800800E3B18006E800E005C02E1010E3A5C96
:1001A80002E23A4A3B2A5AD02C50000AFF0ED8A441
:1001B800000E016E2950000AFF0ED8A4000E006E32
:1001C800005001162A50000AFF0ED8A4000E006E37
:1001D800005001162F50000AFF0ED8A4000E006E22
:1001E800005001163050000AFF0ED8A4000E006E11
:1001F800005001162D50000AFF0ED8A4000E006E04
:10020800005001162E50000AFF0ED8A4000E006EF2
:10021800005001162850000AFF0ED8A4000E006EE8
:10022800015000160EE0800E006E800E3B18005C38
:1002380002E13A500A0804E2010E3A5E000E3B5A07
:100248000DD0800E006E800E3B18005C02E13A5023
:10025800000804E2010E3A5E000E3B5A000E81BA15
:10026800010E356EF29017C000F016C001F015C0EF
:0402780002F011007F
:10027C00220E0C6E086A096A0A6A0B6A0C06D8B45C
:10028C001FD0D8900B320A320932083203320232B4
:10029C0001320032D8A0F2D70C06D8B409D00450E1
:1002AC0008260550092206500A2207500B22EAD7CD
:1002BC00045008260550092206500A2207500B222A
:0202CC0012001E
:0A02CE001D0E0D6E0D2EFED712005E
:1002D8000450085E0550D8A0053C095E0650D8A019
:1002E800063C0A5E0750D8A0073C0B5E0336070E93
:1002F8000C6E0334083609360A360B36045003A050
:100308000ED0085E0550D8A0053C095E0650D8A05E
:10031800063C0A5E0750D8A0073C0B5E0DD00826A5
:100328000550D8B0053C09260650D8B0063C0A2628
:100338000750D8B0073C0B2603360C2EDAD7023408
:10034800083609360A360B36045003A00ED0085E6C
:100358000550D8A0053C095E0650D8A0063C0A5EA8
:100368000750D8A0073C0B5E0DD008260550D8B022
:10037800053C09260650D8B0063C0A260750D8B0D6
:10038800073C0B260236070E0C6E02340836093677
:100398000A360B36045002A00ED0085E0550D8A0CD
:1003A800053C095E0650D8A0063C0A5E0750D8A056
:1003B800073C0B5E0DD008260550D8B0053C092631
:1003C8000650D8B0063C0A260750D8B0073C0B2682
:1003D80002360C2EDAD70134083609360A360B36BF
:1003E800045002A00ED0085E0550D8A0053C095E56
:1003F8000650D8A0063C0A5E0750D8A0073C0B5E02
:100408000DD008260550D8B0053C09260650D8B0AE
:10041800063C0A260750D8B0073C0B260136070EC3
:100428000C6E0134083609360A360B36045001A022
:100438000ED0085E0550D8A0053C095E0650D8A02D
:10044800063C0A5E0750D8A0073C0B5E0DD0082674
:100458000550D8B0053C09260650D8B0063C0A26F7
:100468000750D8B0073C0B2601360C2EDAD70034DB
:10047800083609360A360B36045001A00ED0085E3D
:100488000550D8A0053C095E0650D8A0063C0A5E77
:100498000750D8A0073C0B5E0DD008260550D8B0F1
:1004A800053C09260650D8B0063C0A260750D8B0A5
:1004B800073C0B260036070E0C6E0034083609364A
:1004C8000A360B36045000A00ED0085E0550D8A09E
:1004D800053C095E0650D8A0063C0A5E0750D8A025
:1004E800073C0B5E0DD008260550D8B0053C092600
:1004F8000650D8B0063C0A260750D8B0073C0B2651
:1005080000360C2EDAD700B00ED00450082605505D
:10051800D8B0053C09260650D8B0063C0A26075034
:08052800D8B0073C0B261200BD
:100530000B6A0A6A096A086A0E6A033408360450AC
:10054000085E0550D8A0053C095E0650D8A0063CC0
:100550000A5E0750D8A0073C0B5EE86AD8A0010EDF
:100560000E5E0336070E0C6E0334083609360A3663
:100570000B360E36045003A012D0085E0550D8A0EA
:10058000053C095E0650D8A0063C0A5E0750D8A07C
:10059000073C0B5EE86AD8A0010E0E5E11D008265B
:1005A0000550D8B0053C09260650D8B0063C0A26AE
:1005B0000750D8B0073C0B26E86AD8B0010E0E26CB
:1005C00003360C2ED1D70234083609360A360B36DC
:1005D0000E36045003A012D0085E0550D8A0053C8A
:1005E000095E0650D8A0063C0A5E0750D8A0073C1A
:1005F0000B5EE86AD8A0010E0E5E11D008260550E9
:10060000D8B0053C09260650D8B0063C0A2607504B
:10061000D8B0073C0B26E86AD8B0010E0E26023689
:10062000070E0C6E0234083609360A360B360E36C3
:10063000045002A012D0085E0550D8A0053C095E07
:100640000650D8A0063C0A5E0750D8A0073C0B5EB7
:10065000E86AD8A0010E0E5E11D008260550D8B069
:10066000053C09260650D8B0063C0A260750D8B0EB
:10067000073C0B26E86AD8B0010E0E2602360C2E77
:10068000D1D70134083609360A360B360E360450F7
:1006900002A012D0085E0550D8A0053C095E0650A5
:1006A000D8A0063C0A5E0750D8A0073C0B5EE86A5B
:1006B000D8A0010E0E5E11D008260550D8B0053C1A
:1006C00009260650D8B0063C0A260750D8B0073C89
:1006D0000B26E86AD8B0010E0E260136070E0C6E06
:1006E0000134083609360A360B360E36045001A09E
:1006F00012D0085E0550D8A0053C095E0650D8A06F
:10070000063C0A5E0750D8A0073C0B5EE86AD8A0FA
:10071000010E0E5E11D008260550D8B0053C092602
:100720000650D8B0063C0A260750D8B0073C0B2626
:10073000E86AD8B0010E0E2601360C2ED1D700344F
:10074000083609360A360B360E36045001A012D090
:10075000085E0550D8A0053C095E0650D8A0063CAE
:100760000A5E0750D8A0073C0B5EE86AD8A0010ECD
:100770000E5E11D008260550D8B0053C092606505B
:10078000D8B0063C0A260750D8B0073C0B26E86ACA
:10079000D8B0010E0E260036070E0C6E0034083657
:1007A00009360A360B360E36045000A012D0085E09
:1007B0000550D8A0053C095E0650D8A0063C0A5E4C
:1007C0000750D8A0073C0B5EE86AD8A0010E0E5E69
:1007D00011D008260550D8B0053C09260650D8B0DF
:1007E000063C0A260750D8B0073C0B26E86AD8B06A
:1007F000010E0E2600360C2ED1D700B00ED00450BC
:1008000008260550D8B0053C09260650D8B0063C4D
:0C0810000A260750D8B0073C0B26120047
:10081C000B1E0A1E091E081E082AD8B4092AD8B4B1
:08082C000A2AD8B40B2A1200BD
:100834000B6A0A6A096A00500402F4CF09F0F3CF84
:1008440008F001500502F4CF0BF0F3CF0AF000508A
:100854000502F3500926F4500A22E86A0B220150DB
:100864000402F3500926F4500A22E86A0B2208C055
:1008740000F009C001F00AC002F00BC003F012003E
:100884000450000A12E10550000A0FE10650000A64
:100894000CE10750000A09E1FF0E006EFF0E016E25
:1008A400FF0E026E7F0E036E97D00C6A07BE0C2AF1
:1008B4000D6A0B6A0A6A096A086A03500210011079
:1008C4000010D8B484D0035007180E6E0EBE0D1E4F
:1008D40007AE0BD0041E051E061E071E042AD8B43C
:1008E400052AD8B4062AD8B4072A03AE0BD0001EB2
:1008F400011E021E031E002AD8B4012AD8B4022AFB
:10090400D8B4032A035007100E6E0EBE1CD0E2DCCE
:100914000CBE36D00DAE5BD0001E011E021E031E9F
:10092400002AD8B4012AD8B4022AD8B4032A081E4B
:10093400091E0A1E0B1E082AD8B4092AD8B40A2A8A
:10094400D8B40B2A44D007AE15D003BE0DD0035043
:100954000B6E02500A6E0150096E0050086E036A55
:10096400026A016A006AD6D7036A026A016A006AE7
:10097400002A000C031E021E011E001E0C8EC7D787
:10098400082AD8B4092AD8B40A2AD8B40B2A04509D
:10099400085CD8A4BFD70550095CD8A4BBD70650BF
:1009A4000A5CD8A4B7D707500B5CD8A4B3D70B6A9A
:1009B4000A6A096A086A002AD8B4012AD8B4022A41
:1009C400D8B4032A03AEA6D70E6A0E88FF0C0E6AAB
:0A09D4000CA001D021DF000F12007B
:1009E200030E0001A35D02E1200EA25D05E3C80E25
:1009F200A46F000EA56F32D0A2C0A6F0A3C0A7F0CC
:100A0200000EA86FA96FA6C000F0A7C001F0A8C091
:100A120002F0A9C003F0C80E046E000E056E066E49
:100A2200076E2BDC00C0A6F001C0A7F002C0A8F040
:100A320003C0A9F0200E046E030E056E000E066EB2
:100A4200076E75DD00C0A6F001C0A7F002C0A8F0D5
:100A520003C0A9F000C0A4F001C0A5F0A4C000F03A
:060A6200A5C001F0120026
:100A6C00C26ACF0EC116070EC012C08EA2C000F013
:100A7C0000360090003600900050C212C28021DC7B
:100A8C00C282C2A202D00000FCD7C4CF01F0006A1F
:100A9C0000C0A3F001C0A4F0C3500001A313000ECA
:0E0AAC00A413C290A3C000F0A4C001F0120079
:100ABC000134083609360450085E0550D8A0053CB0
:100ACC00095E003601360F0E0C6E013408360936FD
:100ADC00045000A006D0085E0550D8A0053C095E65
:100AEC0005D008260550D8B0053C0926003601363D
:100AFC000C2EEBD700B006D0045008260550D8B009
:080B0C00053C0926000012005F
:100B1400016A00016E51000A05E0838C4E6A010EE1
:100B2400016E09D082A807D084A005D0838E4E6AB6
:0C0B3400010E016E00D001C000F01200A4
:100B4000020E0001A26F92DF420E0D6E0D2EFED737
:100B500000009D6B9E6B9F6BA06B010EA16F020E40
:100B6000A26F84DF00509D2701509E23000E9F231B
:100B7000A023420E0D6E0D2EFED70000A151040AD7
:100B800002E0A12BECD79DC000F09EC001F09FC0F9
:100B900002F0A0C003F00332023201320032039EA1
:100BA0000332023201320032039E00C09BF001C0CA
:0C0BB0009CF09BC000F09CC001F0120003
:100BC000080E0001A26F52DF420E0D6E0D2EFED7F1
:100BD00000009D6B9E6B9F6BA06B010EA16F080EBA
:100BE000A26F44DF00509D2701509E23000E9F23DB
:100BF000A023420E0D6E0D2EFED70000A151040A57
:100C000002E0A12BECD79DC000F09EC001F09FC078
:100C100002F0A0C003F00332023201320032039E20
:100C20000332023201320032039E00C054F001C090
:100C300055F000C09BF001C09CF09BC000F09CC030
:040C400001F01200AD
:100C4800010E006E000E016ECB500026D8B0012AAE
:100C58009BC004F0000E056EE9DD060E026E00C0B2
:100C680004F001C005F0025005E005320432059E8B
:100C7800FF0FFAD7040E016E04C000F0015004E023
:100C880000360090FF0FFBD7300E0014036E04C02F
:100C980000F005C001F001320032019E013200323D
:100CA800019E00C0BEFF0F0EBD160350BD121200FC
:080CBA009484F00EBD16120037
:100CC2000450000A08E10550000A05E1FF0E006E1B
:100CD2007F0E016E57D00D6A096A086A0150001032
:100CE200D8B4000C015005180A6E0ABE0D1E0B6A1C
:100CF20005AE05D0041E051E042AD8B4052A01AE8D
:100D020005D0001E011E002AD8B4012A0150051088
:100D12000A6E0ABE10D0D1DE0BB020D00DAE000C90
:100D2200001E011E002AD8B4012A081E091E082A24
:100D3200D8B4092A000C05AE0DD001BE07D001506F
:100D4200096E0050086E016A006AE8D7016A006AFB
:100D5200002A000C011E001E0B2ADDD7082AD8B477
:100D6200092A0450085CD8A4D9D70550095CD8A434
:100D7200D5D7096A086A002AD8B4012A01AECED7AB
:060D82000000FF0C12004E
:100D8A00800E006E800E00019C19005C02E19B51EE
:100D9A00000802E39D6B8ED0800E006E800E9C19B7
:100DAA00005C02E19B510A0803E31E0E9D6F82D08C
:100DBA00800E9C19006E800E005C02E1C80E9B5DDD
:100DCA0003E37F0E9D6F76D09BC000F09CC001F0BC
:100DDA00000E9CBFFF0E026E036E0A0E005E000E2E
:100DEA00015A025A035A00C09EF001C09FF002C085
:100DFA00A0F003C0A1F0610E046E000E056E066E2F
:100E0A00076E3EEC01F000C09EF001C09FF002C0E8
:100E1A00A0F003C0A1F0BE0E046E000E056E066EB1
:100E2A00076E2BDD00C09EF001C09FF002C0A0F04B
:100E3A0003C0A1F01E0E0024046E000E0120056EF0
:100E4A00000E0220066E000E0320076E04C09EF0FC
:100E5A0005C09FF006C0A0F007C0A1F0800E0718D9
:100E6A00006E800E005C08E1000E065C05E1000ED3
:100E7A00055C02E1000E045C05E200019E6B9F6BBB
:100E8A00A06BA16B0001800E006E800EA119005CA0
:100E9A0008E1A051000805E19F51000802E19E51B6
:100EAA00FF0806E2FF0E9E6F000E9F6FA06FA16FF4
:0A0EBA009EC09DF09DC000F01200E4
:100EC600020E0001A26FCFDD420E0D6E0D2EFED773
:100ED60000009D6B9E6B9F6BA06B010EA16F020EB7
:100EE600A26FC1DD00509D2701509E23000E9F2357
:100EF600A023420E0D6E0D2EFED70000A151080A4A
:100F060002E0A12BECD7030E046E9DC000F09EC03C
:100F160001F09FC002F0A0C003F0045007E00332C6
:100F2600023201320032039EFF0FF8D700C06AF08A
:100F360001C06BF000C0A2F001C0A3F04FDD00C0FD
:100F46009BF001C09CF09BC000F09CC001F0120019
:100F5C008AC0C9FFC7B002D00000FCD7C9CF00F0CF
:020F6C00120071
:100F6E00800E006E800E00018B19005C02E18A512A
:100F7E000F0805E38AC08DF08BC08EF004D00F0EE3
:100F8E008D6F000E8E6F8DC09BF08EC09CF0F6DEC6
:100F9E0000C08FF08AC09BF08BC09CF0EFDE00C0CB
:100FAE008CF000508F5D0EE38CC09BF046DE8CC043
:100FBE0044F0000E456E466A476A486A496A4A6AB4
:100FCE004B6AABD05D50000A0EE18CC09BF035DE53
:100FDE008CC044F0000E456E466A476A486A496AFC
:100FEE004A6A4B6A9AD08FC09BF027DE8FC044F0BE
:100FFE00000E456E5DC000F0000E016E640E046EB4
:10100E00000E056E10DC00C091F001C092F0000ED3
:10101E00011802E1000E001805E1010E0001916FAA
:10102E00000E926F00018F518C5D996F000E9A6FBA
:10103E00000E9A57010E936F000E946F9451925DAD
:10104E0002E19351915D5CE35EDD0050010A09E11E
:10105E009B6BF3DD446A456A29DE849484924D6A63
:10106E005CD099C095F09AC096F0000E0001976F73
:10107E00986F95C000F096C001F097C002F098C02E
:10108E0003F093C004F094C005F0000E066E076ED8
:10109E003EEC01F000C095F001C096F002C097F052
:1010AE0003C098F091C004F092C005F0000E066ED9
:1010BE00076E98EC02F000508F25016E01C090F083
:1010CE0001508C5D02E28CC090F090C09BF0B5DDBB
:1010DE0090C044F0000E456E340E0C6EF10E0D6E87
:1010EE000D2EFED70C2EFCD70000000000019451EF
:1010FE00921902E19151931903E0934B942B9ED7D1
:10110E008CC09BF09ADD8CC044F0000E456E466A92
:0C111E00476A486A496A4A6A4B6A120034
:10114000FFDC00C06AF001C06BF00150695D02E194
:101150000050685D03E2010E8A6F01D08A6B8AC07D
:0411600000F0120089
:10116600086A096A100E0C6E0134083609360450F6
:10117600085E0550D8A0053C095ED8B007D00450DB
:1011860008260550D8B0053C0926D8900036013609
:061196000C2EEAD7120046
:10119C0000016051000A05E150C08AF051C08BF08B
:1011AC001BD05F50010A05E150C08AF051C08BF092
:1011BC0013D050C000F051C001F02BC004F0000E51
:1011CC00056E1AEC04F0640E046E000E056E73DDF1
:1011DC0000C08AF001C08BF08AC000F08BC001F017
:0211EC001200EF
:1011F0006ADE00C08CF001C08DF0000E671902E1BC
:10120000000E661905E18CC066F08DC067F017D03E
:1012100066C000F067C001F0030E046E000E056E9C
:101220001AEC04F08C5100268D510122040E046E3C
:10123000000E056E46DD00C066F001C067F066C0B6
:101240008AF067C08BF08AC000F08BC001F01200FA
:10125400800E00018B19006E800E005C02E1000E0E
:101264008A5D08E28A510008026E8BC003F0000E0A
:10127400035604D08AC002F08BC003F002C000F011
:0612840003C001F012009E
:10128A00000E00018D1902E1000E8C1908E18BC0D5
:10129A009BF0D5DC8BC044F0000E456EEED0000109
:1012AA008A518B1908E18BC09BF0C9DC8BC044F0D2
:1012BA00000E456EE2D000018A518B5D6BE28B51C4
:1012CA008A5D906F000E916F000E9157010E8E6F1E
:1012DA00000E8F6F8F518D5D02E18E518C5D59E347
:1012EA0090C092F091C093F0000E946F956F92C0E7
:1012FA0000F093C001F094C002F095C003F08EC0D4
:10130A0004F08FC005F0000E066E076E3EEC01F089
:10131A0000C092F001C093F002C094F003C095F0AF
:10132A008CC004F08DC005F0000E066E076E98ECB6
:10133A0002F000508A5D046E01C005F0000E0556E9
:10134A0004C096F005C097F0000E055C02E18B51CF
:10135A00045C04E28BC096F0000E976F96C09BF077
:10136A006EDC96C044F097C045F0340E0C6EF10E58
:10137A000D6E0D2EFED70C2EFCD7000000000001CA
:10138A008F518D1902E18C518E1903E08E4B8F2BF0
:10139A00A1D76BD08A518B5D906F000E916F000EB2
:1013AA009157010E8E6F000E8F6F8F518D5D02E186
:1013BA008E518C5D5AE390C092F091C093F0000E6A
:1013CA00946F956F92C000F093C001F094C002F040
:1013DA0095C003F08EC004F08FC005F0000E066EB3
:1013EA00076E3EEC01F000C092F001C093F002C01B
:1013FA0094F003C095F08CC004F08DC005F0000E87
:10140A00066E076E98EC02F08A510024046E000EF4
:10141A000120056E04C096F005C097F0000E006E1C
:10142A000550005C02E104508B5D04E28BC096F02B
:10143A00000E976F96C09BF002DC96C044F097C0EE
:10144A0045F0340E0C6EF10E0D6E0D2EFED70C2EDD
:10145A00FCD70000000000018F518D1902E18C5168
:10146A008E1903E08E4B8F2BA0D78BC09BF024ECF8
:0C147A0006F08BC044F0000E456E12001E
:10148E000A0E00019B6F000E9C6F78DC00C08BF083
:10149E0000C09BF024EC06F08BC044F0000E456EAD
:1014AE00010E00018A6F340E0C6EF10E0D6E0D2EB4
:1014BE00FED70C2EFCD7000000008A51320A02E043
:0614CE008A2BF1D7120089
:1014D600E0EC05F0000E015C02E1140E005C03E393
:0E14E600010E8A6F01D08A6B8AC000F01200DE
:1014F400E0EC05F0000E026E0150025C02E10050C7
:101504000C0803E3010E8A6F01D08A6B8AC000F0D5
:021514001200C3
:10151600080E00019B6F000E9C6F34DC00C07AF051
:1015260000C09BF024EC06F07AC044F0000E456E35
:10153600526A00017B6B7C6B7D6B7E6B7F6B536AA3
:10154600806B816B826B4E50010A47E18AEC05F095
:101556000050010A0BE19B6B24EC06F0446A456AD5
:101566005DEC06F0849284944D6AEED0A0EC05F012
:10157600000E026E0150025C02E10050190805E2FD
:101586000A0E7B5DD8A07B2B01D07B6B030E7B5DA7
:1015960005E3010E526E010E806F1FD07E4B7F2B2E
:1015A600010E7F5D02E12C0E7E5D0CE39B6B24EC4D
:1015B60006F0446A456A5DEC06F0849284944D6AAE
:1015C6004E6AC2D0340E0C6EF10E0D6E0D2EFED785
:1015D6000C2EFCD700000000B6D700018051000A8F
:1015E60001E1B2D04E50000A01E1AED07E6B7F6BB6
:1015F6004E50010A43E18AEC05F00050010A0BE166
:101606009B6B24EC06F0446A456A5DEC06F0849216
:1016160084944D6A99D0A0EC05F0000E015C02E1BD
:10162600080E005C05E20A0E7C5DD8A07C2B01D07A
:101636007C6B030E7C5D03E3010E816F1FD07E4B36
:101646007F2B010E7F5D02E12C0E7E5D0CE39B6B12
:1016560024EC06F0446A456A5DEC06F084928494B4
:101666004D6A4E6A71D0340E0C6EF10E0D6E0D2E53
:10167600FED70C2EFCD700000000BAD7000181511E
:10168600000A01E161D04E50000A01E15DD07E6B97
:101696007F6B4E50010A47E18AEC05F00050010AC3
:1016A6000BE19B6B24EC06F0446A456A5DEC06F0A0
:1016B600849284944D6A48D0A0EC05F0000E026E28
:1016C6000150025C02E10050140805E2140E7D5D33
:1016D600D8A07D2B01D07D6B050E7D5D05E3010E47
:1016E600536E010E826F1FD07E4B7F2B010E7F5DE6
:1016F60002E12C0E7E5D0CE39B6B24EC06F0446A43
:10170600456A5DEC06F0849284944D6A4E6A1CD05C
:10171600340E0C6EF10E0D6E0D2EFED70C2EFCD770
:1017260000000000B6D700018251000A01E10CD08A
:101736004E50000A01E108D05350010A05E150C09D
:0A1746008AF051C08BF010DC120095
:101754000001636B646B466A476A376A386A446A95
:10176400456A486A496A4A6A4B6A666B676B4C6A9F
:0E177400596A5A6A4F6A586A566A576A1200D2
:101782001E50000A05E1640E246E000E256E0DD077
:101792001EC004F0000E056EE80E006E030E016E10
:1017A200E1DC00C024F001C025F0000E251802E1A2
:1017B200000E241804E1010E246E000E256E24C0D2
:1017C20000F025C001F018C004F0000E056E1AECFE
:1017D20004F0640E046E000E056EC4DC00C06CF0F2
:1017E20001C06DF00050245C5B6E015025585C6EA8
:1017F200000E011802E1000E001805E1010E0001C1
:101802006C6F000E6D6F000E5C1802E1000E5B182B
:0C18120004E1010E5B6E000E5C6E120023
:1018220000017A51000A03E17E0E016E37D07A512F
:10183200010A03E1300E016E31D07A51020A03E14E
:101842006D0E016E2BD07A51030A03E1790E016EFF
:1018520025D07A51040A03E1330E016E1FD07A516A
:10186200050A03E15B0E016E19D07A51060A03E103
:101872005F0E016E13D07A51070A03E1700E016EFA
:101882000DD07A51080A03E17F0E016E07D07A511A
:10189200090A03E17B0E016E01D0016A01C000F06A
:0218A200120032
:1018A400A6A202D00000FCD7A69C7BC0AAFF7AC0E7
:1018B400A9FF7CC0A8FFA69EA684F2CF00F0F29EEA
:1018C400550EA76EAA0EA76EA68200BE02D0F29E87
:0E18D40001D0F28EA694A1A8FED7A198120012
:1018E200848200016551000A02E184921CD0010E3B
:1018F200016E0150655D16E3010E026E340E0C6E30
:10190200F10E0D6E0D2EFED70C2EFCD7000000003E
:101912000250640A02E0022AF1D70150651902E07E
:08192200012AE7D784921200AC
:10192A0082907AC08AF0AEEC07F0850E0D6E0D2E0D
:10193A00FED77BC08AF0AEEC07F0850E0D6E0D2E39
:06194A00FED782801200AE
:101950002C6A296A2A6A2F6A306A2D6A2E6A286AD6
:02196000120073
:101962000A0E00019B6F000E9C6FC5EC06F000C0D2
:101972007AF04F50000A2AE1BCDD0050010A09E169
:10198200000E5A5C02E1C80E595C02E2594A5A2A18
:1019920002D0596A5A6A000E5A5C02E1C80E595CBA
:1019A20014E3010E4F6E010E586E566A576A596A59
:1019B2005A6A84949B6B24EC06F0446A456A486A2E
:1019C200496A4A6A4B6A466A476A4FD083DD0050C9
:1019D200010A0DE14F6A586A566A576A596A5A6A89
:1019E200486A496A4A6A4B6A466A476A3ED0585010
:1019F200010A16E1010E575C02E1900E565C03E209
:101A0200564A572A0CD0566A576A020E586E7AC046
:101A12009BF024EC06F07AC044F0000E456E25D00F
:101A22005850020A22E1000E575C02E1640E565C35
:101A320003E2564A572A18D0566A576A5ADD0050AE
:101A4200010A08E19B6B24EC06F0446A456A010E28
:101A5200586E0AD04F6A586A596A5A6A486A496A7D
:0C1A62004A6A4B6A466A476A00D01200CC
:0A1A74009494CA840C0EBD121200F7
:101A7E00F8EC08F000C061F001C062F0CEEC08F0A6
:101A8E0000C084F001C085F000016151005E62511A
:101A9E00015A00C063F001C064F000C08AF001C0BA
:101AAE008BF02AEC09F0800E0118026E800E025C9B
:101ABE0002E1280E005C09E2635148266451492276
:101ACE00000E64BFFF0E4A224B22800E006E800E67
:101ADE004B18005C08E14A50000805E149500B081C
:101AEE0002E14850B80807E2B80E486E0B0E496E78
:101AFE00000E4A6E4B6E800E4B18006E7F0E005C11
:101B0E0008E1FF0E4A5C05E1F40E495C02E1480E65
:101B1E00485C07E2480E486EF40E496EFF0E4A6EA0
:101B2E004B6E84C09BF085C09CF0C5EC06F000C0E7
:101B3E007EF0000E7F6F7EC07AF07FC07BF0000ECD
:101B4E007FBFFF0E7C6F7D6F030E046E63C000F0CF
:101B5E0064C001F0000E64BFFF0E026E036E0450EF
:101B6E0007E000360090013602360336FF0FF8D735
:101B7E00080E046E000E056E066E076E42EC04F043
:101B8E00005000017A25866F01507B21876F02502D
:101B9E007C21886F03507D21896F86C07AF087C0C3
:101BAE007BF088C07CF089C07DF0400E046E000E84
:101BBE00056E066E076E48C000F049C001F04AC0BF
:101BCE0002F04BC003F042EC04F0005000018625F9
:101BDE00046E01508721056E02508821066E035057
:101BEE008921076E04C07AF005C07BF006C07CF038
:101BFE0007C07DF0800E0718006E800E005C08E1B5
:101C0E00000E065C05E1000E055C02E1000E045CB0
:101C1E0004E27A6B7B6B7C6B7D6B800E006E800EAC
:101C2E007D19005C08E17C51000805E17B5100083C
:101C3E0002E17A51FF0806E2FF0E7A6F000E7B6F0B
:101C4E007C6F7D6F44507A5D016E45507B59026EFC
:101C5E0001C080F002C081F07AC082F07BC083F0B8
:101C6E00800E006E800E0218005C02E10150030827
:101C7E0006E2030E4424826F000E4520836F800E11
:101C8E008119006E7F0E005C02E1FD0E805D06E2A2
:101C9E00030E445C826F000E4558836F800E8319CD
:101CAE00006E800E005C02E1000E825D02E2826B2D
:101CBE00836B800E006E800E8319005C02E18251F0
:101CCE00FF0804E2FF0E826F000E836F82C044F0A5
:101CDE0083C045F082C09BF024EC06F063C046F052
:061CEE0064C047F0120083
:101CF40000016051000A05E1010E5F6E6F6B706BAD
:101D040019D06F4B702B5F50010A0AE16D51705D61
:101D140002E16C516F5D03E36F6B706B5F6A0AD015
:101D24005C50705D02E15B506F5D04E36F6B706B40
:061D3400010E5F6E1200BB
:101D3A0044C07AF00A0E00019B6F000E9C6FC5EC3E
:101D4A0006F000C07BF05EC000F0000E016E320E9D
:101D5A00046E000E056E1AEC04F000C07CF001C09F
:101D6A007DF05E50000A13E17A517B5D08E27BC088
:101D7A009BF024EC06F07BC044F0000E456E47EC65
:101D8A000AF09B6B24EC06F0446A456A22D00001F3
:101D9A007A517B5D0BE27AC08AF07BC08BF07CC003
:101DAA008CF07DC08DF045EC09F008D07AC09BF02C
:101DBA0024EC06F07AC044F0000E456E47EC0AF0B7
:101DCA0044C08AF08B6B7CC08CF07DC08DF045ECF2
:041DDA0009F01200FA
:101DDE00800E006E800E5118005C02E150500F080C
:101DEE0005E350C07AF051C07BF005D00F0E000114
:101DFE007A6F000E7B6F7AC09BF07BC09CF0C5ECB7
:101E0E0006F000C07CF000C09BF024EC06F07CC015
:101E1E0044F0000E456E536A0001716B7D6B010E2E
:101E2E007E6F7F6B806B4E50010AFF0ED8A4000EA2
:101E3E00016E7E51010AFF0ED8A4000E006E0150F5
:101E4E0000164DE08AEC05F00050010A0EE19B6B86
:101E5E0024EC06F0446A456A5DEC06F084948492A4
:101E6E00536A0001716B4D6A54D0010E805D02E120
:101E7E002C0E7F5D02E27F4B802BA0EC08F0005011
:101E8E00010A05E1140E7D5DD8A07D2B01D07D6B7E
:101E9E00140E7D5D04E3010E536E84947E6B010E71
:101EAE00805D02E12C0E7F5D0FE384949B6B24EC2E
:101EBE0006F0446A456A5DEC06F08492536A0001AE
:101ECE00716B4D6A4E6A25D0340E0C6EF10E0D6E8E
:101EDE000D2EFED70C2EFCD700000000A4D74E50BE
:101EEE00000A0EE19B6B24EC06F0446A456A5DEC39
:101EFE0006F084948492536A0001716B4D6A09D086
:101F0E005350010A06E150C08AF051C08BF0B7EC75
:041F1E0007F01200B6
:101F22004D50010A0FE18494E4DE1ADD4E50010A9D
:101F320009E14F50000A06E14C2A040E4C5C02E310
:061F42004C6A9CDD120058
:101F4E0000DD76C07AF066DC00C07BF0030E7A6F9F
:101F5E00E5DC020E00017A6F7B6BE0DC010E000106
:081F6E007A6F7B6BDBDC1200D3
:101F8000A69C77C0AAFF76C0A9FFA69EA680A8CF70
:081F900001F001C000F0120095
:101F9800C69AFF0E196EFF0E1A6EFF0E1B6EFF0E0D
:101FA8001C6E5C0E1F6E0F0E206E8A0E216E000EC8
:101FB800226E949A94969488C66A400EC76EC68A12
:021FC800120005
:101FCA00030E00017A6F010E7B6FAADC020E00017C
:101FDA007A6F7B6BA5DC010E00017A6F7B6BA0DC4C
:101FEA000B0E0B6E260E0C6E5D0E0D6E0D2EFED7B1
:101FFA000C2EFCD70B2EFAD700000000030E0001AE
:10200A007A6F7B6B8DDC020E00017A6F010E7B6F9B
:10201A0087DC010E00017A6F7B6B82DC0B0E0B6E84
:10202A00260E0C6E5D0E0D6E0D2EFED70C2EFCD7F5
:10203A000B2EFAD700000000030E00017A6F7B6BAB
:10204A006FDC020E00017A6F7B6B6ADC010E000105
:10205A007A6F010E7B6F64DC0B0E0B6E260E0C6E14
:10206A005D0E0D6E0D2EFED70C2EFCD70B2EFAD759
:10207A0000000000030E00017A6F7B6B51DC020E38
:10208A0000017A6F7B6B4CDC010E00017A6F7B6B6F
:04209A0047DC12000D
:1020B6004D50010A06E184943DDE5DEC06F00EDC2F
:1020C60002D0849484920001536A716B4D6A4E6A01
:0620D600AAEC0BF0120061
:1020E000AAEC0BF0596A5A6A4F6A586A566A576ADC
:1020F000546A556A6F6B706B010E5F6EC1EC0BF02A
:102100004D50000A01E088D08482536A0001716B4F
:10211000526A1D5000082EE2010E766F76511D5C4A
:1021200029E3010E776F340E0C6EF10E0D6E0D2E3D
:10213000FED70C2EFCD7000000008AEC05F0005002
:10214000010A0DE184928494536A716B9B6B24ECB9
:1021500006F0446A456A5DEC06F04D6A5DD0000108
:102160007751640A02E0772BDED776511D1802E022
:10217000762BD4D74E50000A0BE1849284949B6B4B
:1021800024EC06F0446A456A5DEC06F04D6A44D0E2
:1021900071DC7AEC0AF00050010A0FE184949B6B29
:1021A00024EC06F0446A456A5DEC06F08492536ABA
:1021B0000001716B4D6A4E6A2FD080B20FD08484BB
:1021C000030E0B6E080E0C6E770E0D6E0D2EFED7E5
:1021D0000C2EFCD70B2EFAD702DE03D084948BECA6
:1021E0000AF04E50010AFF0ED8A4000E016E5350A3
:1021F000010AFF0ED8A4000E006E0150001603E085
:10220000010E4D6E09D05DEC06F084948492536A01
:0A2210000001716B4D6A4E6A120066
:10221E00A8EC0CF000017651010A03E1010E2C6EC0
:10222E002AD07651020A03E1010E296E24D076518E
:10223E00030A03E1010E2A6E1ED07651040A03E151
:10224E00010E2F6E18D07651050A03E1010E306E85
:10225E0012D07651060A03E1010E2D6E0CD0765186
:10226E00070A03E1010E2E6E06D07651080A03E12D
:08227E00010E286E00D01200D1
:10228600640E046E000E056E76C000F077C001F095
:1022960061EC06F00A0E046E000E056E61EC06F0A7
:1022A60008C000F009C001F000C078F000C07AF064
:1022B60011EC0CF000C078F00A0E046E000E056EEC
:1022C60076C000F077C001F061EC06F00A0E046EED
:1022D600000E056E61EC06F008C000F009C001F0C2
:1022E60000C079F000C07AF011EC0CF000C079F073
:1022F6000A0E046E000E056E76C000F077C001F07F
:1023060061EC06F008C000F009C001F000C07AF0E8
:1023160011EC0CF0010E7A6F00C07BF095EC0CF01E
:10232600020E00017A6F79C07BF095EC0CF0030E7B
:0E23360000017A6F78C07BF095EC0CF012007D
:10234400010E00017A6F000E7B6F1DC07CF052EC11
:102354000CF0680E0C6EE40E0D6E0D2EFED70C2ED6
:10236400FCD70000020E00017A6F000E7B6F5DC087
:102374007CF052EC0CF0680E0C6EE40E0D6E0D2E1B
:10238400FED70C2EFCD70000030E00017A6F000E5E
:102394007B6F5EC07CF052EC0CF0680E0C6EE40EA9
:1023A4000D6E0D2EFED70C2EFCD70000040E00017E
:1023B4007A6F000E7B6F65C07CF052EC0CF0680EF7
:1023C4000C6EE40E0D6E0D2EFED70C2EFCD7000005
:1023D400050E00017A6F000E7B6F1EC07CF052EC7C
:1023E4000CF0680E0C6EE40E0D6E0D2EFED70C2E46
:1023F400FCD70000060E00017A6F000E7B6F2BC025
:102404007CF052EC0CF0680E0C6EE40E0D6E0D2E8A
:10241400FED70C2EFCD70000070E00017A6F000EC9
:102424007B6F18C07CF052EC0CF0680E0C6EE40E5E
:102434000D6E0D2EFED70C2EFCD70000080E0001E9
:102444007A6F000E7B6F60C07CF052EC0CF0680E6B
:102454000C6EE40E0D6E0D2EFED70C2EFCD7000074
:02246400120064
:08246600BE6ABD98BD9A120088
:06246E00828093DD1200E4
:102476000C0E00017A6F010E7B6F95EC0CF0090EC5
:1024860000017A6F7B6B95EC0CF00B0E00017A6FF6
:10249600020E7B6F95EC0CF00A0E00017A6F0F0EA0
:1024A6007B6F95EC0CF00F0E00017A6F7B6B95EC51
:0424B6000CF0120014
:1024BA0000016E51000A01E07CD082A80ED084B0DF
:1024CA0009D0010E4E6E4D50000A02E104DE01D021
:1024DA0023DD02D04E6AEADD68D03950000A14E1E1
:1024EA004150010AFF0ED8A4000E016E84B002D03A
:1024FA00D88001D0D890006AD8B0002A01500016BE
:10250A0002E0010E396E51D03950010A1DE14150E5
:10251A00000AFF0ED8A4000E016E84B002D0D89033
:10252A0001D0D880006AD8B0002A015000160BE00A
:10253A00010E4E6ED0DD4D50010A03E1020E396ED6
:10254A0002D0396A4E6A31D03950020A15E1E4DC08
:10255A004150010AFF0ED8A4000E016E84B002D0C9
:10256A00D88001D0D890006AD8B0002A015000164D
:10257A0002E0030E396E19D03950030A16E1CCDC99
:10258A004150000AFF0ED8A4000E016E84B002D09A
:10259A00D89001D0D880006AD8B0002A015000161D
:1025AA0003E04E6A83DD396A00D0000E84B0010E62
:0425BA00416E12005C
:1025CC0000016E51000A2EE13450010AFF0ED8A40E
:1025DC00000E016E83BE02D0D88001D0D890006A64
:1025EC00D8B0002A015000161DE0820E0C6EDD0ED4
:1025FC000D6E0D2EFED70C2EFCD70000000083BEF6
:10260C0011D0010E6E6F010E336E3AC03EF03BC01E
:10261C003FF01DC03AF0000E3B6E346A010E766F2F
:10262C0090DC22D100016E51010AD8A419D183BECD
:10263C0004D033C076F085DCA0D033C076F0E9DD71
:10264C003350010A10E1800E006E800E3B18005CC6
:10265C0002E13A500A0804E20A0E3A6E000E3B6E92
:10266C003AC01DF085D03350020A10E1800E006E86
:10267C00800E3B18005C02E13A50140804E2140E80
:10268C003A6E000E3B6E3AC05DF072D03350030AC6
:10269C0010E1800E006E800E3B18005C02E13A5097
:1026AC00140804E2140E3A6E000E3B6E3AC05EF053
:1026BC005FD03350040A10E1800E006E800E3B1880
:1026CC00005C02E13A50140804E2140E3A6E000E5B
:1026DC003B6E3AC065F04CD03350050A10E1800EC9
:1026EC00006E800E3B18005C02E13A50140804E2C4
:1026FC00140E3A6E000E3B6E3AC01EF039D03350B9
:10270C00060A10E1800E006E800E3B18005C02E1A0
:10271C003A50640804E2640E3A6E000E3B6E3AC006
:10272C002BF026D03350070A10E1800E006E800E7D
:10273C003B18005C02E13A50640804E2640E3A6E05
:10274C00000E3B6E3AC018F013D03350080A10E15B
:10275C00800E006E800E3B18005C02E13A500108BE
:10276C0004E2010E3A6E000E3B6E3AC060F000D0EF
:10277C003AC076F03BC077F080DD3450010AFF0E92
:10278C00D8A4000E016E83BE02D0D88001D0D890A0
:10279C00006AD8B0002A0150001662E0820E0C6E5E
:1027AC00DD0E0D6E0D2EFED70C2EFCD7000000009A
:1027BC0083BE56D0080E335C3EE2332A3350020AF5
:1027CC0005E15DC03AF0000E3B6E30D03350030A89
:1027DC0005E15EC03AF0000E3B6E28D03350040A7F
:1027EC0005E165C03AF0000E3B6E20D03350050A6F
:1027FC0005E11EC03AF0000E3B6E18D03350060AAD
:10280C0005E12BC03AF0000E3B6E10D03350070A96
:10281C0005E118C03AF0000E3B6E08D03350080AA0
:10282C0005E160C03AF0000E3B6E00D033C076F08C
:10283C00A7EC0FF015D080DDE5EC0FF0A8EC0CF058
:10284C0000016E6B336A3EC03AF03FC03BF03EC0B5
:10285C0026F03FC027F03EC076F03FC077F00DDD8C
:0A286C00000E83BE010E346E120050
:10288200010E0001766F000E776FC0EC0FF000C0F2
:102892001DF0020E766F000E776FC0EC0FF000C0D5
:1028A2005DF0030E766F000E776FC0EC0FF000C084
:1028B2005EF0040E766F000E776FC0EC0FF000C072
:1028C20065F0050E766F000E776FC0EC0FF000C05A
:1028D2001EF0060E766F000E776FC0EC0FF000C090
:1028E2002BF0070E766F000E776FC0EC0FF000C072
:1028F20018F0080E766F000E776FC0EC0FF000C074
:1029020060F01D50FF0AD8B41D6A5D50FF0A02E153
:10291200030E5D6E5E50FF0A02E1030E5E6E6551AC
:10292200FF0A02E1030E656F1D500A0802E20A0E59
:102932001D6E5D50140802E2140E5D6E5E501408A6
:1029420002E2140E5E6E6551140802E2140E656F07
:102952001E50FF0A02E1050E1E6E2B50FF0A02E115
:10296200320E2B6E1850FF0A02E1320E186E6051C1
:10297200FF0AD8B4606B1E50140802E2140E1E6ED9
:102982002B50640802E2640E2B6E1850640802E2B7
:0E299200640E186E60510108D8A0606B120030
:1029A000FF0E926E3F0E936E500E946E800E956EDB
:1029B000010E966E7B6A7A6A806A816A826A836A8D
:1029C000846AC26AC16AAA0EC06E010E7F6E040ECE
:1029D0007E6E700ED36ECA90CA92CA80CA927C0E66
:1029E000CB6E41DD1E0E00019B6F24EC06F05DEC0A
:1029F00006F0819E819C849284943C6A3D6A426A7E
:102A0000436A406A010E416E396A4E6A00016E6B7C
:102A1000336A010E346E4D6A316A326A366A536A1D
:102A20003C0E686F000E696F6A6B6B6B716B636B4A
:102A3000646B466A476A376A386A446A456A616BFA
:102A4000626B486A496A4A6A4B6A666B676B4C6A92
:102A5000526A596A5A6A4F6A586A566A576A546A79
:102A6000556A030E0B6E080E0C6E770E0D6E0D2E52
:102A7000FED70C2EFCD70B2EFAD7F9DC030E0B6E0B
:102A8000080E0C6E770E0D6E0D2EFED70C2EFCD799
:102A90000B2EFAD7F0DC030E0B6E080E0C6E770EC1
:102AA0000D6E0D2EFED70C2EFCD70B2EFAD7300E46
:102AB0007D6E000E81BA010E356E640E3A6E000E08
:102AC0003B6E640E506E000E516E640E3E6E000E34
:102AD0003F6E81CF23F0F290F286F28EF19E7C88D9
:102AE0007C8ACFDE73DD00016E51000A0FE13AC02F
:102AF00050F03BC051F0E1DC3AC026F03BC027F07B
:102B00003AC076F03BC077F043EC11F01A0E0C6E31
:102B1000F80E0D6E0D2EFED70C2EFCD70000E2D75E
:022B2000FFD7DD
:020000040030CA
:0D000100081F1EFF0B81FF0FC00FE00F4016
:00000001FF
